11:36:01.053009 94:18:82:79:2e:c8 > 14:b3:1f:05:33:3d, ethertype ARP (0x0806), length 60: Request who-has 133.45.131.91 (14:b3:1f:05:33:3d) tell 133.45.131.5, length 46
	0x0000:  0001 0800 0604 0001 9418 8279 2ec8 852d
	0x0010:  8305 14b3 1f05 333d 852d 835b 0000 0000
	0x0020:  0000 0000 0000 0000 0000 0000 0000
11:36:01.053029 14:b3:1f:05:33:3d > 94:18:82:79:2e:c8, ethertype ARP (0x0806), length 42: Reply 133.45.131.91 is-at 14:b3:1f:05:33:3d, length 28
	0x0000:  0001 0800 0604 0002 14b3 1f05 333d 852d
	0x0010:  835b 9418 8279 2ec8 852d 8305
11:36:23.153166 14:b3:1f:05:33:3d > 94:18:82:7a:5a:30, ethertype ARP (0x0806), length 42: Request who-has 133.45.131.6 tell 133.45.131.91, length 28
	0x0000:  0001 0800 0604 0001 14b3 1f05 333d 852d
	0x0010:  835b 0000 0000 0000 852d 8306
11:36:23.153264 94:18:82:7a:5a:30 > 14:b3:1f:05:33:3d, ethertype ARP (0x0806), length 60: Reply 133.45.131.6 is-at 94:18:82:7a:5a:30, length 46
	0x0000:  0001 0800 0604 0002 9418 827a 5a30 852d
	0x0010:  8306 14b3 1f05 333d 852d 835b 0000 0000
	0x0020:  0000 0000 0000 0000 0000 0000 0000

