11:38:33.517362 14:b3:1f:05:33:3d > 00:a6:ca:df:8b:7f, ethertype IPv4 (0x0800), length 75: 133.45.131.91.45696 > 133.45.152.2.domain: 25097+ A? www.yahoo.co.jp. (33)
	0x0000:  4500 003d bdbd 0000 4011 973a 852d 835b
	0x0010:  852d 9802 b280 0035 0029 25f3 6209 0100
	0x0020:  0001 0000 0000 0000 0377 7777 0579 6168
	0x0030:  6f6f 0263 6f02 6a70 0000 0100 01
11:38:33.517884 00:a6:ca:df:8b:7f > 14:b3:1f:05:33:3d, ethertype IPv4 (0x0800), length 191: 133.45.152.2.domain > 133.45.131.91.45696: 25097 2/2/2 CNAME edge12.g.yimg.jp., A 183.79.217.124 (149)
	0x0000:  4500 00b1 01e2 0000 3f11 53a2 852d 9802
	0x0010:  852d 835b 0035 b280 009d d7bb 6209 8180
	0x0020:  0001 0002 0002 0002 0377 7777 0579 6168
	0x0030:  6f6f 0263 6f02 6a70 0000 0100 01c0 0c00
	0x0040:  0500 0100 0002 4700 1006 6564 6765 3132
	0x0050:  0167 0479 696d 67c0 19c0 2d00 0100 0100
	0x0060:  0000 1900 04b7 4fd9 7cc0 3400 0200 0100
	0x0070:  0001 5f00 0805 676e 7331 32c0 10c0 3400
	0x0080:  0200 0100 0001 5f00 0805 676e 7330 32c0
	0x0090:  10c0 6d00 0100 0100 0001 4d00 0476 97fe
	0x00a0:  94c0 5900 0100 0100 0001 4d00 047c 53ff
	0x00b0:  64

