11:37:02.388361 14:b3:1f:05:33:3d > 00:a6:ca:df:8b:7f, ethertype IPv4 (0x0800), length 98: 133.45.131.91 > 133.45.152.2: ICMP echo request, id 44154, seq 1, length 64
	0x0000:  4500 0054 0000 4000 4001 14f1 852d 835b
	0x0010:  852d 9802 0800 98d6 ac7a 0001 4e91 b65c
	0x0020:  0000 0000 e9ec 0500 0000 0000 1011 1213
	0x0030:  1415 1617 1819 1a1b 1c1d 1e1f 2021 2223
	0x0040:  2425 2627 2829 2a2b 2c2d 2e2f 3031 3233
	0x0050:  3435 3637
11:37:02.388618 00:a6:ca:df:8b:7f > 14:b3:1f:05:33:3d, ethertype IPv4 (0x0800), length 98: 133.45.152.2 > 133.45.131.91: ICMP echo reply, id 44154, seq 1, length 64
	0x0000:  4500 0054 e612 0000 3f01 6fde 852d 9802
	0x0010:  852d 835b 0000 a0d6 ac7a 0001 4e91 b65c
	0x0020:  0000 0000 e9ec 0500 0000 0000 1011 1213
	0x0030:  1415 1617 1819 1a1b 1c1d 1e1f 2021 2223
	0x0040:  2425 2627 2829 2a2b 2c2d 2e2f 3031 3233
	0x0050:  3435 3637

